{
  "contractName": "TempMatch",
  "abi": [
    {
      "constant": true,
      "inputs": [],
      "name": "dex",
      "outputs": [
        {
          "name": "",
          "type": "address"
        }
      ],
      "payable": false,
      "stateMutability": "view",
      "type": "function"
    },
    {
      "constant": true,
      "inputs": [
        {
          "name": "",
          "type": "uint256"
        }
      ],
      "name": "buyQueue",
      "outputs": [
        {
          "name": "start",
          "type": "uint256"
        },
        {
          "name": "end",
          "type": "uint256"
        }
      ],
      "payable": false,
      "stateMutability": "view",
      "type": "function"
    },
    {
      "constant": true,
      "inputs": [
        {
          "name": "",
          "type": "uint256"
        }
      ],
      "name": "orderFlag",
      "outputs": [
        {
          "name": "",
          "type": "bool"
        }
      ],
      "payable": false,
      "stateMutability": "view",
      "type": "function"
    },
    {
      "constant": true,
      "inputs": [],
      "name": "proxy",
      "outputs": [
        {
          "name": "",
          "type": "address"
        }
      ],
      "payable": false,
      "stateMutability": "view",
      "type": "function"
    },
    {
      "constant": true,
      "inputs": [
        {
          "name": "",
          "type": "uint256"
        }
      ],
      "name": "sellQueue",
      "outputs": [
        {
          "name": "start",
          "type": "uint256"
        },
        {
          "name": "end",
          "type": "uint256"
        }
      ],
      "payable": false,
      "stateMutability": "view",
      "type": "function"
    },
    {
      "inputs": [
        {
          "name": "_proxy",
          "type": "address"
        },
        {
          "name": "_dex",
          "type": "address"
        }
      ],
      "payable": false,
      "stateMutability": "nonpayable",
      "type": "constructor"
    },
    {
      "payable": true,
      "stateMutability": "payable",
      "type": "fallback"
    },
    {
      "anonymous": false,
      "inputs": [
        {
          "indexed": true,
          "name": "trader",
          "type": "address"
        },
        {
          "indexed": true,
          "name": "base",
          "type": "address"
        },
        {
          "indexed": true,
          "name": "quote",
          "type": "address"
        },
        {
          "indexed": false,
          "name": "baseAmount",
          "type": "uint256"
        },
        {
          "indexed": false,
          "name": "quoteAmount",
          "type": "uint256"
        },
        {
          "indexed": false,
          "name": "gasAmount",
          "type": "uint256"
        },
        {
          "indexed": false,
          "name": "is_sell",
          "type": "bool"
        }
      ],
      "name": "TakeOrder",
      "type": "event"
    },
    {
      "anonymous": false,
      "inputs": [
        {
          "indexed": true,
          "name": "trader",
          "type": "address"
        },
        {
          "indexed": true,
          "name": "base",
          "type": "address"
        },
        {
          "indexed": true,
          "name": "quote",
          "type": "address"
        },
        {
          "indexed": false,
          "name": "baseAmount",
          "type": "uint256"
        },
        {
          "indexed": false,
          "name": "quoteAmount",
          "type": "uint256"
        },
        {
          "indexed": false,
          "name": "gasAmount",
          "type": "uint256"
        },
        {
          "indexed": false,
          "name": "is_sell",
          "type": "bool"
        }
      ],
      "name": "MakeOrder",
      "type": "event"
    },
    {
      "anonymous": false,
      "inputs": [
        {
          "indexed": true,
          "name": "trader",
          "type": "address"
        },
        {
          "indexed": true,
          "name": "base",
          "type": "address"
        },
        {
          "indexed": true,
          "name": "quote",
          "type": "address"
        },
        {
          "indexed": false,
          "name": "baseAmount",
          "type": "uint256"
        },
        {
          "indexed": false,
          "name": "quoteAmount",
          "type": "uint256"
        },
        {
          "indexed": false,
          "name": "is_sell",
          "type": "bool"
        }
      ],
      "name": "CancelOrder",
      "type": "event"
    },
    {
      "constant": false,
      "inputs": [
        {
          "name": "base",
          "type": "address"
        },
        {
          "name": "quote",
          "type": "address"
        },
        {
          "name": "baseAmount",
          "type": "uint256"
        },
        {
          "name": "quoteAmount",
          "type": "uint256"
        },
        {
          "name": "gasAmount",
          "type": "uint256"
        },
        {
          "name": "is_sell",
          "type": "bool"
        }
      ],
      "name": "takeOrder",
      "outputs": [
        {
          "name": "",
          "type": "bytes32"
        }
      ],
      "payable": false,
      "stateMutability": "nonpayable",
      "type": "function"
    },
    {
      "constant": true,
      "inputs": [
        {
          "name": "base",
          "type": "address"
        },
        {
          "name": "quote",
          "type": "address"
        }
      ],
      "name": "getBQHash",
      "outputs": [
        {
          "name": "bq_hash",
          "type": "uint256"
        }
      ],
      "payable": false,
      "stateMutability": "pure",
      "type": "function"
    },
    {
      "constant": false,
      "inputs": [
        {
          "name": "odh",
          "type": "bytes32"
        },
        {
          "name": "base",
          "type": "address"
        },
        {
          "name": "quote",
          "type": "address"
        },
        {
          "name": "is_sell",
          "type": "bool"
        }
      ],
      "name": "cancelOrder",
      "outputs": [],
      "payable": false,
      "stateMutability": "nonpayable",
      "type": "function"
    }
  ],
  "bytecode": "0x60806040523480156200001157600080fd5b50604051604080620019908339810180604052620000339190810190620000d4565b81600360006101000a81548173ffffffffffffffffffffffffffffffffffffffff021916908373ffffffffffffffffffffffffffffffffffffffff16021790555080600460006101000a81548173ffffffffffffffffffffffffffffffffffffffff021916908373ffffffffffffffffffffffffffffffffffffffff160217905550505062000163565b600081519050620000ce8162000149565b92915050565b60008060408385031215620000e857600080fd5b6000620000f885828601620000bd565b92505060206200010b85828601620000bd565b9150509250929050565b6000620001228262000129565b9050919050565b600073ffffffffffffffffffffffffffffffffffffffff82169050919050565b620001548162000115565b81146200016057600080fd5b50565b61181d80620001736000396000f3fe60806040526004361061007b5760003560e01c8063ad2d00f11161004e578063ad2d00f11461014c578063c5c89eb014610189578063ec556889146101c6578063f3405769146101f15761007b565b806330d598ed1461007d578063692058c2146100ba57806372f02169146100e5578063a0235af114610123575b005b34801561008957600080fd5b506100a4600480360361009f91908101906111e1565b61022f565b6040516100b191906115d0565b60405180910390f35b3480156100c657600080fd5b506100cf610297565b6040516100dc919061151d565b60405180910390f35b3480156100f157600080fd5b5061010c60048036036101079190810190611309565b6102bd565b60405161011a9291906115eb565b60405180910390f35b34801561012f57600080fd5b5061014a600480360361014591908101906112a6565b6102e1565b005b34801561015857600080fd5b50610173600480360361016e919081019061121d565b61048d565b6040516101809190611553565b60405180910390f35b34801561019557600080fd5b506101b060048036036101ab9190810190611309565b6108e1565b6040516101bd9190611538565b60405180910390f35b3480156101d257600080fd5b506101db610901565b6040516101e8919061151d565b60405180910390f35b3480156101fd57600080fd5b5061021860048036036102139190810190611309565b610927565b6040516102269291906115eb565b60405180910390f35b60008273ffffffffffffffffffffffffffffffffffffffff1660001b8273ffffffffffffffffffffffffffffffffffffffff1660001b604051602001610276929190611492565b6040516020818303038152906040528051906020012060001c905092915050565b600460009054906101000a900473ffffffffffffffffffffffffffffffffffffffff1681565b60016020528060005260406000206000915090508060010154908060020154905082565b60008373ffffffffffffffffffffffffffffffffffffffff1660001b8373ffffffffffffffffffffffffffffffffffffffff1660001b604051602001610328929190611492565b6040516020818303038152906040528051906020012060001c905060008560001c90506002600082815260200190815260200160002060009054906101000a900460ff1661037557600080fd5b60008060008481526020019081526020016000209050836103a6576001600084815260200190815260200160002090505b600081600001600084815260200190815260200160002060000190506000816001015490506000826002015490506103de848661094b565b6002600086815260200190815260200160002060006101000a81549060ff02191690558773ffffffffffffffffffffffffffffffffffffffff168973ffffffffffffffffffffffffffffffffffffffff163373ffffffffffffffffffffffffffffffffffffffff167fc2ac42456013e0142c4165f63d6cd02722a0cf3b183620090ce804c880e317a185858c60405161047993929190611614565b60405180910390a450505050505050505050565b6000808773ffffffffffffffffffffffffffffffffffffffff1660001b8773ffffffffffffffffffffffffffffffffffffffff1660001b6040516020016104d5929190611492565b6040516020818303038152906040528051906020012060001c905060003373ffffffffffffffffffffffffffffffffffffffff1660001b878787876040516020016105249594939291906114be565b6040516020818303038152906040528051906020012060001c90506002600082815260200190815260200160002060009054906101000a900460ff161561056a57600080fd5b60016002600083815260200190815260200160002060006101000a81548160ff02191690831515021790555061059e6110ec565b33816000019073ffffffffffffffffffffffffffffffffffffffff16908173ffffffffffffffffffffffffffffffffffffffff1681525050878160200181815250508681604001818152505085816060018181525050600080600085815260200190815260200160002090506000600160008681526020019081526020016000209050866106505760016000868152602001908152602001600020915060008086815260200190815260200160002090505b610658611142565b61066382858a610b54565b90508b73ffffffffffffffffffffffffffffffffffffffff168d73ffffffffffffffffffffffffffffffffffffffff163373ffffffffffffffffffffffffffffffffffffffff167f878265d6cf0115c8d9dbd56eb5237dd410cd86a8d876a4bd33ff399fecf6a29e8460000151856020015186604001518e6040516106eb949392919061164b565b60405180910390a461070e81602001518560400151610d3590919063ffffffff16565b84604001818152505061073281604001518560600151610d3590919063ffffffff16565b84606001818152505060008460400151141561077c576002600086815260200190815260200160002060006101000a81549060ff02191690556000801b96505050505050506108d7565b8383600001600087815260200190815260200160002060000160008201518160000160006101000a81548173ffffffffffffffffffffffffffffffffffffffff021916908373ffffffffffffffffffffffffffffffffffffffff1602179055506020820151816001015560408201518160020155606082015181600301556080820151816004015560a082015181600501600082015181600001556020820151816001015560408201518160020155505090505061083c83868d8b610d7f565b8b73ffffffffffffffffffffffffffffffffffffffff168d73ffffffffffffffffffffffffffffffffffffffff163373ffffffffffffffffffffffffffffffffffffffff167fc7dadc0720693e686b687740e4c81b1416a9a9ce28ad07152430182e32ff225b8760200151886040015189606001518e6040516108c2949392919061164b565b60405180910390a48460001b96505050505050505b9695505050505050565b60026020528060005260406000206000915054906101000a900460ff1681565b600360009054906101000a900473ffffffffffffffffffffffffffffffffffffffff1681565b60006020528060005260406000206000915090508060010154908060020154905082565b60008260010154148015610963575060008260020154145b1561096d57610b50565b8082600101541415610a2c578160000160008281526020019081526020016000206008015482600101819055508160000160008281526020019081526020016000206000808201600080820160006101000a81549073ffffffffffffffffffffffffffffffffffffffff0219169055600182016000905560028201600090556003820160009055600482016000905560058201600080820160009055600182016000905560028201600090555050505060088201600090555050610b50565b60008260010154905060008360000160008381526020019081526020016000206008015490505b60008114610a8b5782811415610a6857610a8b565b809150836000016000838152602001908152602001600020600801549050610a53565b83600001600084815260200190815260200160002060080154846000016000848152602001908152602001600020600801819055508360000160008481526020019081526020016000206000808201600080820160006101000a81549073ffffffffffffffffffffffffffffffffffffffff021916905560018201600090556002820160009055600382016000905560048201600090556005820160008082016000905560018201600090556002820160009055505050506008820160009055505050505b5050565b610b5c611142565b60008460010154905060005b60008214610d2c5760008660000160008481526020019081526020016000206000019050866000016000848152602001908152602001600020600801549150848015610bbb575080600101548660200151105b80610bd7575084158015610bd6575080600101548660200151115b5b15610d1d578060020154866040015110610c8657610c1c610c0982600201548360020154610fcc90919063ffffffff16565b856000015161103c90919063ffffffff16565b846000018181525050610c408160020154856020015161103c90919063ffffffff16565b846020018181525050610c6481600201548760400151610d3590919063ffffffff16565b86604001818152505060008160020181905550610c81878461094b565b610d18565b610cb7610ca482600201548860400151610fcc90919063ffffffff16565b856000015161103c90919063ffffffff16565b846000018181525050610cdb8660400151856020015161103c90919063ffffffff16565b846020018181525050610cff86604001518260020154610d3590919063ffffffff16565b8160020181905550600086604001818152505050610d2c565b610d23565b50610d2c565b81925050610b68565b50509392505050565b6000610d7783836040518060400160405280601e81526020017f536166654d6174683a207375627472616374696f6e206f766572666c6f770000815250611091565b905092915050565b60008460010154148015610d97575060008460020154145b15610db357828460010181905550828460020181905550610fc6565b808015610dde5750818460000160008660010154815260200190815260200160002060000160010154115b80610e11575080158015610e105750818460000160008660010154815260200190815260200160002060000160010154105b5b15610e4557836001015484600001600085815260200190815260200160002060080181905550828460010181905550610fc6565b808015610e705750818460000160008660020154815260200190815260200160002060000160010154105b80610ea3575080158015610ea25750818460000160008660020154815260200190815260200160002060000160010154115b5b15610ed757828460000160008660020154815260200190815260200160002060080181905550828460020181905550610fc6565b60008460010154905060008560000160008381526020019081526020016000206008015490505b60008114610f8957828015610f2d57508386600001600083815260200190815260200160002060000160010154115b80610f5c575082158015610f5b57508386600001600083815260200190815260200160002060000160010154105b5b15610f6657610f89565b809150856000016000838152602001908152602001600020600801549050610efe565b8086600001600087815260200190815260200160002060080181905550848660000160008481526020019081526020016000206008018190555050505b50505050565b600080831415610fdf5760009050611036565b6000828402905082848281610ff057fe5b0414611031576040517f08c379a0000000000000000000000000000000000000000000000000000000008152600401611028906115b0565b60405180910390fd5b809150505b92915050565b600080828401905083811015611087576040517f08c379a000000000000000000000000000000000000000000000000000000000815260040161107e90611590565b60405180910390fd5b8091505092915050565b60008383111582906110d9576040517f08c379a00000000000000000000000000000000000000000000000000000000081526004016110d0919061156e565b60405180910390fd5b5060008385039050809150509392505050565b604051806101000160405280600073ffffffffffffffffffffffffffffffffffffffff1681526020016000815260200160008152602001600081526020016000801916815260200161113c611163565b81525090565b60405180606001604052806000815260200160008152602001600081525090565b60405180606001604052806000801916815260200160008019168152602001600080191681525090565b60008135905061119c81611787565b92915050565b6000813590506111b18161179e565b92915050565b6000813590506111c6816117b5565b92915050565b6000813590506111db816117cc565b92915050565b600080604083850312156111f457600080fd5b60006112028582860161118d565b92505060206112138582860161118d565b9150509250929050565b60008060008060008060c0878903121561123657600080fd5b600061124489828a0161118d565b965050602061125589828a0161118d565b955050604061126689828a016111cc565b945050606061127789828a016111cc565b935050608061128889828a016111cc565b92505060a061129989828a016111a2565b9150509295509295509295565b600080600080608085870312156112bc57600080fd5b60006112ca878288016111b7565b94505060206112db8782880161118d565b93505060406112ec8782880161118d565b92505060606112fd878288016111a2565b91505092959194509250565b60006020828403121561131b57600080fd5b6000611329848285016111cc565b91505092915050565b61133b816116ac565b82525050565b61134a816116be565b82525050565b61136161135c826116be565b611731565b82525050565b611370816116ca565b82525050565b611387611382826116ca565b611743565b82525050565b600061139882611690565b6113a2818561169b565b93506113b28185602086016116fe565b6113bb81611769565b840191505092915050565b60006113d3601b8361169b565b91507f536166654d6174683a206164646974696f6e206f766572666c6f7700000000006000830152602082019050919050565b600061141360218361169b565b91507f536166654d6174683a206d756c7469706c69636174696f6e206f766572666c6f60008301527f77000000000000000000000000000000000000000000000000000000000000006020830152604082019050919050565b611475816116f4565b82525050565b61148c611487826116f4565b61174d565b82525050565b600061149e8285611376565b6020820191506114ae8284611376565b6020820191508190509392505050565b60006114ca8288611376565b6020820191506114da828761147b565b6020820191506114ea828661147b565b6020820191506114fa828561147b565b60208201915061150a8284611350565b6001820191508190509695505050505050565b60006020820190506115326000830184611332565b92915050565b600060208201905061154d6000830184611341565b92915050565b60006020820190506115686000830184611367565b92915050565b60006020820190508181036000830152611588818461138d565b905092915050565b600060208201905081810360008301526115a9816113c6565b9050919050565b600060208201905081810360008301526115c981611406565b9050919050565b60006020820190506115e5600083018461146c565b92915050565b6000604082019050611600600083018561146c565b61160d602083018461146c565b9392505050565b6000606082019050611629600083018661146c565b611636602083018561146c565b6116436040830184611341565b949350505050565b6000608082019050611660600083018761146c565b61166d602083018661146c565b61167a604083018561146c565b6116876060830184611341565b95945050505050565b600081519050919050565b600082825260208201905092915050565b60006116b7826116d4565b9050919050565b60008115159050919050565b6000819050919050565b600073ffffffffffffffffffffffffffffffffffffffff82169050919050565b6000819050919050565b60005b8381101561171c578082015181840152602081019050611701565b8381111561172b576000848401525b50505050565b600061173c82611757565b9050919050565b6000819050919050565b6000819050919050565b60006117628261177a565b9050919050565b6000601f19601f8301169050919050565b60008160f81b9050919050565b611790816116ac565b811461179b57600080fd5b50565b6117a7816116be565b81146117b257600080fd5b50565b6117be816116ca565b81146117c957600080fd5b50565b6117d5816116f4565b81146117e057600080fd5b5056fea265627a7a72305820ac816709c5f4816caae62872f99992a188815cecf0ebaa67fbbf57f08f8434786c6578706572696d656e74616cf50037",
  "source": "\npragma solidity >=0.4.21 <0.6.0;\npragma experimental ABIEncoderV2;\n\nimport \"./SafeMath.sol\";\n\ncontract TempMatch{\n    using SafeMath for uint256;\n\n    // signature\n    struct OrderSignature {\n        bytes32 config;\n        bytes32 r;\n        bytes32 s;\n    }\n\n    // Match info\n    struct MatchedInfo{\n        uint256 baseAmount;\n        uint256 quoteAmount;\n        uint256 gasAmount;\n    }\n\n    // order info\n    struct OrderParam {\n        address trader;\n        uint256 baseAmount;\n        uint256 quoteAmount;\n        uint256 gasAmount;\n        bytes32 data;\n        OrderSignature signature;\n    }\n\n    // token set\n    struct OrderAddressSet {\n        address baseToken;\n        address quoteToken;\n        address relayer;\n    }\n\n    // queue element\n    struct QueueElem {\n        OrderParam order;\n        uint256 next;\n    }\n\n    // queue\n    struct Queue{\n        mapping(uint256 => QueueElem) elems;\n        uint256 start;\n        uint256 end;\n    }\n\n    //  sell/buy queue \n    mapping(uint256 => Queue) public sellQueue;\n    mapping(uint256 => Queue) public buyQueue;\n\n    // order flag\n    mapping(uint256 => bool) public orderFlag;\n\n    /* proxy: address of proxy\n     * dex: address of dex\n     * */\n    address public proxy;\n    address public dex;\n\n    event TakeOrder(address indexed trader, address indexed base, address indexed quote,\n                    uint256 baseAmount, uint256 quoteAmount, uint256 gasAmount,\n                    bool is_sell);\n    event MakeOrder(address indexed trader, address indexed base, address indexed quote,\n                    uint256 baseAmount, uint256 quoteAmount, uint256 gasAmount,\n                    bool is_sell);\n    event CancelOrder(address indexed trader, address indexed base, address indexed quote,\n                    uint256 baseAmount, uint256 quoteAmount, bool is_sell);\n    //event MatchOrder(address indexed taker,\n    //                uint256 baseAmount, uint256 quoteAmount, bool is_sell);\n\n    /* constructor\n     * proxy: address of proxy\n     * dex: address of dex\n     * */\n    constructor (address _proxy, address _dex) public\n    {\n        proxy = _proxy;\n        dex = _dex;\n    }\n\n    function () external payable\n    {\n    }\n\n    /* take order\n     * base\n     * base: base token   \n     * quote: quote toke\n     * baseAmount: amount of base token for 1 quote token\n     * quoteAmount: amount of quote token\n     * gasAmount: hot token amount\n     * is_sell: true for sell, false for buy\n     * return hash of order if doesn't match all quoteAmount\n     * */\n    function takeOrder(address base, address quote,\n                       uint256 baseAmount, uint256 quoteAmount, uint256 gasAmount, bool is_sell)\n        public\n        returns (bytes32)\n    {\n        // hash of base-quote token\n        uint256 bq_hash = uint256(keccak256(abi.encodePacked(\n                                        bytes32(uint256(base)),\n                                        bytes32(uint256(quote)))));\n\n        // hash of order\n        uint256 od_hash = uint256(keccak256(abi.encodePacked(\n                                        bytes32(uint256(msg.sender)),\n                                        baseAmount,\n                                        quoteAmount,\n                                        gasAmount,\n                                        is_sell)));\n\n        // mark order\n        require(!orderFlag[od_hash]);\n        orderFlag[od_hash] = true;\n\n        OrderParam memory od;\n        od.trader = msg.sender;\n        od.baseAmount  = baseAmount;\n        od.quoteAmount = quoteAmount;\n        od.gasAmount = gasAmount;\n        // TODO: data, signature\n        //od.data = ;\n        //od.signature = ;\n\n        Queue storage queue  = sellQueue[bq_hash];\n        Queue storage mqueue =  buyQueue[bq_hash];\n        if(!is_sell)\n        {\n            queue  =  buyQueue[bq_hash];\n            mqueue = sellQueue[bq_hash];\n        }\n\n        // match sell / buy\n        MatchedInfo memory mi = match_orders(mqueue, od, is_sell);\n\n        emit TakeOrder(msg.sender, base, quote,\n                  mi.baseAmount, mi.quoteAmount, mi.gasAmount,\n                  is_sell);\n\n        od.quoteAmount =  od.quoteAmount.sub(mi.quoteAmount);\n        od.gasAmount =  od.gasAmount.sub(mi.gasAmount);\n        \n        // full match\n        if(od.quoteAmount == 0)\n        {\n            delete orderFlag[od_hash];\n            return bytes32(0);\n        }\n\n        // use baseAmount for 1 quote token\n        queue.elems[od_hash].order = od;\n\n        // insert maker order\n        insert_queue(queue, od_hash, baseAmount, is_sell);\n        emit MakeOrder(msg.sender, base, quote, od.baseAmount, od.quoteAmount, od.gasAmount, is_sell);\n\n        return bytes32(od_hash);\n    }\n\n    /* get base-quote-hash\n     * base: base token\n     * quote: quote token\n     * */\n    function getBQHash(address base, address quote) public pure returns(uint256 bq_hash)\n    {\n        bq_hash = uint256(keccak256(abi.encodePacked(\n                                bytes32(uint256(base)),\n                                bytes32(uint256(quote)))));\n    }\n\n    /* cancel order\n     * odh: order-hash\n     * base: base token\n     * quote: quote token\n     * is_sell: true for sell, false for buy\n     * */\n    function cancelOrder (bytes32 odh, address base, address quote, bool is_sell) public\n    {\n        // hash of base-quote token\n        uint256 bq_hash = uint256(keccak256(abi.encodePacked(\n                                        bytes32(uint256(base)),\n                                        bytes32(uint256(quote)))));\n        uint256 od_hash = uint256(odh);\n\n        // exists\n        require(orderFlag[od_hash]);\n\n        // get queue\n        Queue storage queue  = sellQueue[bq_hash];\n        if(!is_sell)\n            queue  =  buyQueue[bq_hash];\n\n        OrderParam storage order = queue.elems[od_hash].order;\n        uint256 baseAmount = order.baseAmount;\n        uint256 quoteAmount = order.quoteAmount;\n\n        // delete order\n        remove_queue(queue, od_hash);\n        delete orderFlag[od_hash];\n\n        emit CancelOrder(msg.sender, base, quote, baseAmount, quoteAmount, is_sell);\n    }\n\n    // match sell/buy\n    function match_orders(Queue storage queue,\n                          OrderParam memory taker,\n                          bool is_sell)\n        internal\n        returns(MatchedInfo memory mi)\n    {\n        uint256 odh = queue.start;\n        uint256 next;\n        while(odh != 0)\n        {\n            OrderParam storage maker = queue.elems[odh].order;\n            next = queue.elems[odh].next;\n            if((is_sell  && taker.baseAmount < maker.baseAmount) ||\n               (!is_sell && taker.baseAmount > maker.baseAmount))\n            {\n                if(taker.quoteAmount >= maker.quoteAmount)\n                {\n                    mi.baseAmount = mi.baseAmount.add(maker.quoteAmount.mul(maker.quoteAmount));\n                    mi.quoteAmount = mi.quoteAmount.add(maker.quoteAmount);\n                    taker.quoteAmount = taker.quoteAmount.sub(maker.quoteAmount);\n                    maker.quoteAmount = 0;\n                    remove_queue(queue, odh);\n                }\n                else\n                {\n                    mi.baseAmount = mi.baseAmount.add(taker.quoteAmount.mul(maker.quoteAmount));\n                    mi.quoteAmount = mi.quoteAmount.add(taker.quoteAmount);\n                    maker.quoteAmount = maker.quoteAmount.sub(taker.quoteAmount);\n                    taker.quoteAmount = 0;\n                    break;\n                }\n            }\n            else\n            {\n                break;\n            }\n            odh = next;\n        }\n        //emit MatchOrder(taker.trader, baseAmount, quoteAmount, is_sell);\n    }\n\n    // insert sell/buy queue\n    function insert_queue(Queue storage queue,\n                          uint256 od_hash,\n                          uint256 baseAmount,\n                          bool is_sell)\n        internal\n    {\n        // empty queue\n        if (queue.start == 0 &&\n            queue.end == 0)\n        {\n            queue.start = od_hash;\n            queue.end = od_hash;\n            return ;\n        }\n\n\n        // best price\n        if((is_sell  && queue.elems[queue.start].order.baseAmount > baseAmount) ||\n           (!is_sell && queue.elems[queue.start].order.baseAmount < baseAmount))\n        {\n            queue.elems[od_hash].next = queue.start;\n            queue.start = od_hash;\n            return ;\n        }\n\n        // worst price\n        if((is_sell  && queue.elems[queue.end].order.baseAmount < baseAmount) ||\n           (!is_sell && queue.elems[queue.end].order.baseAmount > baseAmount))\n        {\n            queue.elems[queue.end].next = od_hash;\n            queue.end = od_hash;\n            return ;\n        }\n\n        // middle price\n        uint256 odh = queue.start;\n        uint256 next = queue.elems[odh].next;\n        while(next != 0)\n        {\n            if((is_sell  && queue.elems[next].order.baseAmount > baseAmount) ||\n               (!is_sell && queue.elems[next].order.baseAmount < baseAmount))\n                break;\n\n            odh = next;\n            next = queue.elems[odh].next;\n        }\n        queue.elems[od_hash].next = next;\n        queue.elems[odh].next = od_hash;\n    }\n\n    // remove sell/buy queue\n    // returns baseAmount, quoteAmount\n    function remove_queue(Queue storage queue, uint256 od_hash)\n        internal\n    {\n        // empty queue\n        if (queue.start == 0 &&\n            queue.end == 0)\n        {\n            return ;\n        }\n\n        // best price\n        if(queue.start == od_hash)\n        {\n            queue.start = queue.elems[od_hash].next;\n            delete queue.elems[od_hash];\n            return ;\n        }\n\n        // middle/worst price\n        uint256 odh = queue.start;\n        uint256 next = queue.elems[odh].next;\n        while(next != 0)\n        {\n            if(next == od_hash)\n                break;\n\n            odh = next;\n            next = queue.elems[odh].next;\n        }\n        queue.elems[odh].next = queue.elems[od_hash].next;\n        delete queue.elems[od_hash];\n    }\n\n}\n",
  "sourcePath": "/home/henry/learning/git/yw/dex/contracts/TempMatch.sol",
  "compiler": {
    "name": "solc",
    "version": "0.5.8+commit.23d335f2.Emscripten.clang"
  },
  "schemaVersion": "3.0.11",
  "updatedAt": "2019-08-03T01:15:49.127Z",
  "devdoc": {
    "methods": {}
  },
  "userdoc": {
    "methods": {}
  }
}